:03000000020800F3
:0C080000787FE4F6D8FD758108020847F7
:03099B0001080050
:03000300020910DF
:10091000C0E0C0D075D000C006C007AF08EF339567
:10092000E0FEC3EF9405EE6480948050020508AFAA
:1009300008EF3395E0FEEF64054E7003750801D0B3
:0809400007D006D0D0D0E03250
:0300130002099649
:05099600B280B28132C5
:10088C00758901C280D281D2AFD2A8D2AAD288D225
:10089C008AAF08EF3395E0FEEF64014E701175904E
:1008AC0001D2827F01FE120948C2827F03803AAFD7
:1008BC0008EF3395E0FEEF64024E7011759002D292
:1008CC00827F02FE120948C2827F02801CAF08EFB1
:1008DC003395E0FEEF64034E7016759004D2827F60
:1008EC0003FE120948C2827F017E0012094880A1D2
:1008FC00AF08EF3395E0FEEF64044E7094759008EA
:04090C00D282808D86
:10094800E4FDEDFB3395E0FAC3EB9FEE6480F8EA33
:100958006480985006758CEE0D80E7E4F58AD28C99
:07096800308DFDC28CC28D31
:01096F002265
:10097000E4FDFCC3ED9FEE6480F8EC6480985015B4
:10098000E4FBFA0BBB00010ABA03F8BBE8F50DBDA6
:0509900000010C80DEF7
:01099500223F
:10080C0002088CE493A3F8E493A34003F68001F26E
:10081C0008DFF48029E493A3F85407240CC8C333ED
:10082C00C4540F4420C8834004F456800146F6DFBC
:10083C00E4800B010204081020408090099BE47EA8
:10084C00019360BCA3FF543F30E509541FFEE493B1
:10085C00A360010ECF54C025E060A840B8E493A378
:10086C00FAE493A3F8E493A3C8C582C8CAC583CAA3
:10087C00F0A3C8C582C8CAC583CADFE9DEE780BE5B
:01099E000058
:00000001FF
